:03000000020F4BA1
:0C0F4B00787FE4F6D8FD758121020F923A
:0C11FB00000000000000000000000000E8
:1010910044009A0000000044009200000000440057
:0510A1009600000000B4
:04002E0053D9BF22C1
:0412260043B20322AA
:0A12120043A41043E10143E240222F
:10112400439810758DCC538EF4438E08858D8B5364
:0A113400890F758920D28ED299220E
:10113E0053C8FE538ECF75CBD875CAEF85CBCD85F0
:08114E00CACC43C804D2AD2253
:101156005391FE538E3F7593FC7592178593958533
:0611660092944391042263
:03002B00020DD6ED
:100DD600C0E0C0F0C083C082C0D075D000C000C0E3
:0D0DE60001C002C003C004C005C006C00764
:100DF300900068E4F0A3F0786A7C007D017BFF7AC1
:100E03001179FBFE7F0C1205DE9000967A00796A59
:100E1300120E9E90009A7A00796E120E9E900092A6
:100E2300E0FCA3E0FDA3E0FEA3E0FF7B017A0079F1
:100E330072120EAB7599AA7FFA1211827599557FBA
:100E4300FA121182900068E4F0900068E0FFC39406
:100E53000C5020746A2FF582E43400F583E0F59991
:100E6300900069E004F07FFA121182900068E004B8
:100E7300F080D6900069E0F5997FFA121182C2CF13
:100E8300D007D006D005D004D003D002D001D000C3
:0B0E9300D0D0D082D083D0F0D0E0326D
:0300330002002A9E
:01002A0032A3
:0D11D50000000000000000000000000022EB
:0E11A9007FA27E06EF1FAC0670011E4C70F692
:0111B7002215
:10118200E4FEEF75F00584FDEEC39D50061211D505
:031192000E80EFDD
:011195002237
:02116C00AD07CD
:10116E00E4FBED75F00584FFEBC39F50061211A949
:03117E000B80EFF4
:01118100224B
:0F11B800D281D2801211D5C2811211D5C28022EC
:0C11EF00C281D2801211D5D2810211D52C
:0E11C700A2009281D2801211D5C2800211D5F1
:0D11E200D2801211D5A281C2801211D52237
:0810E3001211B81210EBAF0569
:1010EB00E4FEEF25E0FF9281D2801211D5C280126F
:0A10FB0011D50EEEB408EB0211E26D
:10110500E4FFD281FEEF25E0FFD2801211D5A28146
:0E111500E4334FFFC2801211D50EEEB408E78E
:0111230022A9
:0B1207001210E3AF031210EB0211EF16
:0D0FD700900038EBF0A3EAF0A3E9F0AC07BE
:100FE4001210E31211B8EC04FF1210EBE4FD12111D
:100FF40005900038E0FBA3E0FAA3E0F98D82758345
:1010040000EF12065CEDB40504D2008002C20012A7
:0F10140011C70DEDB406D71211EF7F0F02116C4B
:0D0E9E00E0FCA3E0FDA3E0FEA3E0FF7B016C
:100EAB0090007612068C90007AEBF0A3EAF0A3E99F
:010EBB00F046
:100EBC007B017A007976A3EBF0A3EAF0A3E9F012B8
:100ECC000604FF90007AE0FBA3E0FAA3E0F9EF122E
:100EDC00064A90007DE0FBA3E0FAA3E0F990000144
:100EEC0012061DFF90007AE0FBA3E0FAA3E0F99054
:100EFC000001EF12065C90007DE0FBA3E0FAA3E09A
:100F0C00F990000212061DFF90007AE0FBA3E0FAB4
:100F1C00A3E0F9900002EF12065C90007DE0FBA3C9
:100F2C00E0FAA3E0F990000312061DFF90007AE0AE
:0E0F3C00FBA3E0FAA3E0F9900003EF12065CBD
:010F4A002284
:1000030061783D25662C2061793D25662C20617A37
:100013003D25660A0000000000000000000000000B
:0700230000000000000000D6
:1010A6005200800000000000000000000000000068
:0510B600000000000035
:100B610078247C007D017BFF7A0079187E007F0666
:100B71001205DE782A7C007D017BFF7A00791E7EDA
:100B8100007F061205DE78307C007D017BFF7A0054
:100B910079247E007F061205DEE4900036F0A3F092
:100BA10012002E1212261212121211247FC81211D3
:100BB1006C12113E12121C7FC812116C7B017A005B
:100BC10079807D327FA6120FD77B017A0079867DED
:100BD1001D7FD0120FD77B017A00798C7D037F3C7A
:100BE100120FD7900081E0FE900080E0FDEDFF90B4
:100BF100002AEEF0A3EFF0900083E0FE900082E087
:100C0100FDEDFF90002CEEF0A3EFF0900085E0FEEB
:100C1100900084E0FDEDFF90002EEEF0A3EFF09048
:100C21000086E0FEA3E0FDEDFF900024EEF0A3EFCF
:100C3100F0900088E0FEA3E0FDEDFF900026EEF0CD
:100C4100A3EFF090008AE0FEA3E0FDEDFF90002805
:100C5100EEF0A3EFF090008CE0FEA3E0FDEDFF903D
:100C61000030EEF0A3EFF090008EE0FEA3E0FDED8A
:100C7100FF900032EEF0A3EFF0900090E0FEA3E0D1
:100C8100FDEDFF900034EEF0A3EFF090002AE0FCC0
:100C9100A3E0FDEC1201E17B9A7A9979797840120F
:100CA1000036E4FBFA797A784412013F9000001291
:100CB100068C90002CE0FCA3E0FDEC1201E17B9A94
:100CC1007A9979797840120036E4FBFA797A784496
:100CD10012013F90000412068C90002EE0FCA3E06C
:100CE100FDEC1201E17B9A7A99797978401200360C
:100CF100E4FBFA797A784412013F90000812068CDD
:100D0100900024E0FCA3E0FDEC1201E17B007AEC11
:100D1100794D784412013F90000C12068C90002608
:100D2100E0FCA3E0FDEC1201E17B007AEC794D7867
:100D31004412013F90001012068C900028E0FCA3A1
:100D4100E0FDEC1201E17B007AEC794D784412016F
:100D51003F90001412068C900030E0FCA3E0FDEC03
:100D61001201E190001812068C900032E0FCA3E021
:100D7100FDEC1201E190001C12068C900034E0FCA5
:100D8100A3E0FDEC1201E190002012068C7BFF7ABA
:100D9100007903900000E0FCA3E0FDA3E0FEA3E0E6
:100DA100FF90003B12068C900004E0FCA3E0FDA341
:100DB100E0FEA3E0FF90003F12068C900008E0FCEB
:100DC100A3E0FDA3E0FEA3E0FF90004312068C1216
:050DD1000749020BBD03
:0A121C001210231210631211962223
:101023007B0B7D317FA61212077B087D2C7FA612D6
:1010330012077B087D2D7FA61212077B807D2E7FF2
:10104300A6121207E4FB7D1E7FA6121207E4FB7DA6
:101053001F7FA61212077B057D207FA6121207228F
:101063007B807D3E7FD0121207E4FB7D157FD0127B
:1010730012077B1E7D167FD0121207E4FB7D177FBC
:0E108300D0121207E4FB7D3E7FD0121207222E
:101196007B14E4FD7F3C121207E4FB7D027F3C12C8
:0311A6001207220B
:10003600EC4D6011E8497017ED33EC3304600DE4C4
:10004600FCFFFEFD22E933E8330470F802024F128A
:10005600021A58046009E4CC24815006285009028B
:100066000259284003020256C0E0EB4A7044B980A8
:1000760006D0E0FB020245EF4E701CBD8008EBFF88
:10008600EAFEE9FD80EBE98DF0A4FEE5F002011F32
:10009600E9CDF9EAFEEBFFEF89F0A4FCE5F0CE89A5
:1000A600F0A42EFFE435F0CD89F0A42DFEE435F062
:1000B6008067EF4E7005BD80D780C3EF8BF0A4AC90
:1000C600F0EE8BF0A42CFCE435F0F8EF8AF0A42CCB
:1000D600E5F038FCE433CB8DF0A42CFCE5F03BF8DE
:1000E600EE8AF0A42CFCE5F038F8E433CF89F0A4CE
:1000F6002CFCE5F038CF3400CE89F0A42FFFE5F0D4
:100106003EFEE433C98DF0A42EFEE5F039CD8AF02B
:10011600A42FFFE5F03EFEE43DFD33D0E0FB5007A3
:100126000BBB000F020259EC2CFCEF33FFEE33FE43
:06013600ED33FD02023171
:10013C00020259EC5D046005E85904700302024F99
:10014C0012021A580460F6EC4860F2EC7004FDFEE2
:10015C00FF22C860DB2481C85009C3986002500696
:10016C000202569850CAF582E9294B4A7005AB82B7
:10017C0002024575F0007C1A7880C3EF9BEE9AED75
:10018C0099400DC3EF9BFFEE9AFEED99FDE842F00E
:10019C00DC23ACF0D0E0FFD0E0FED0E0FDAB822061
:1001AC00E7101BEB60BAEC2CFCEF33FFEE33FEEDEB
:1001BC0033FD020231E803F830E705C0F075F000BA
:1001CC00EF2FFFEE33FEED33FD40B830E7C280AACF
:1001DC0075F020800E75F010800575F0087D007E9E
:1001EC00007F003392D530D50312067EEC334010DD
:1001FC00EF33FFEE33FEED33FDEC33FCD5F0ED22A7
:0E020C00E5F0247EA2D513CC92E7CDCEFF22E2
:1006DE00E508243BF582E43400F583E0050822901A
:1006EE00003830070390003BE475F00112069802C3
:1006FE0006042000E97F2ED2008018EF540F2490BC
:10070E00D43440D4FF30040BEF24BFB41A0050038E
:10071E002461FFE50960021509050CE50C70020560
:10072E000B30070E900038E475F001120698EF02B8
:10073E00064A0210BC7403D2078003E4C207F50810
:10074E009000381206AFE4F509F50BF50CE50960DB
:10075E00077F2012072180F5750AFFC201C200C271
:10076E0002C203C205C206C2081206EDFF700D30AA
:10077E0007057F00120732AF0CAE0B22B4255FC205
:10078E00D5C2041206EDFF24D0B40A00501A75F03B
:10079E000A780930D50508B6FF0106C6A426F6204C
:1007AE00D5047002D20380D924CFB41A00EF5004BE
:1007BE00C2E5D204020A24D20180C6D20080C0D281
:1007CE000280BCD2D580BAD20580B47F2012072118
:1007DE002002077401B5090040F11206DEFF120770
:1007EE002102075BD208D20680951206DEFB1206A6
:1007FE00DEFA1206DEF94A4B700679227A0B7BFF7F
:10080E0020022EE509602A7E008E82758300120674
:10081E001D60060EEE650A70F0C2D5EBC0E0EAC0B0
:10082E00E0E9C0E0EE120A85D0E0F9D0E0FAD0E0BF
:10083E00FB120604FF60AAEBC0E0EAC0E0E9C0E0EC
:10084E00120721D0E02401F9D0E03400FAD0E0FB09
:10085E00E50A0460DCD50AD98087D20280A2120A8A
:10086E006760F7E50A700104120264A90A600DE5DB
:10087E000A600914F50A120B0FEF60F3EA30E70273
:10088E00F404C3995079EAF4250A0430E701E4042C
:10089E00F50A800D120A6760C1EA050A250A1202DE
:1008AE0064EA900067F030E701E4250A04D50A04F3
:1008BE0020050114120A85E4C0E0120B0F900067A8
:1008CE00E0601320E70714F0120709802204F0D02D
:1008DE00E014C0E07F00120709E50A600712070066
:1008EE00150A800B300503120700D0E002075BD01B
:1008FE00E00480C4120A67609EE50A041202649046
:10090E000067EAF0E50A2005026001042404120AD9
:01091E008553
:10091F0074FF04C0E0120B0F120709E50A2005024D
:10092F006003120700D0E0B50AE87F451207139065
:10093F000067E07F2B30E7047F2DF404C0E012073F
:10094F0021D0E075F00A84C0F012070AD0E0120738
:10095F000A02075B791080027908C206C208800874
:10096F00D2D5790A8004790AC2D5E50A047002F556
:10097F000AE4FAFDFEFF1206DEFC7B0820011312CB
:10098F0006DEFD7B1030000A1206DEFE1206DEFFC9
:10099F007B20EC3382D592D55013C3E43000069FF1
:1009AF00FFE49EFEE42001039DFDE49CFCE4CBF8F4
:1009BF00C201EC700CCFCECDCCE824F8F870F380E8
:1009CF0017C3EF33FFEE33FEED33FDEC33FCEB33A8
:1009DF00FB994002FB0FD8E9EB300105F8D0E0C4DA
:1009EF0048B201C0E00AEC4D4E4F78207B0070C238
:1009FF00EAB50A0040BCC0E0120A87D0F0D0E02070
:100A0F000104C4C0E0C4B201C0F012070AD0F0D58F
:100A1F00F0EB02075B1206B807F85309635807C9D2
:100A2F004C07C54209674F096F44096F4907DE43F9
:100A3F0009755508A246090245086C470B42500735
:100A4F00CD2D07D12E07F42B07D52307F2200B2B23
:100A5F002A078D48000007ECE50AB4FF03750A0664
:100A6F001206DEFC1206DEFD1206DEFE1206DEFFA9
:100A7F009000600202A1790AA2D520031430050963
:100A8F00B910020404B9080104A2D52006025001CE
:100A9F00042002689202B509005034C0E07F203074
:100AAF0003197F30A20272067205500F120ADEC2BE
:100ABF0002C206C205C2087F30800F300503E9C0AD
:100ACF00E0120721300503D0E0F9D0E0B509CC30B2
:100ADF0005177F30B9100C1207217F583004077F9C
:100AEF00788003B908031207213002057F2D020712
:100AFF00217F202008F87F2B2006F322920280CF3F
:100B0F007F00B40700500B2460F582E43400F583B6
:100B1F00E0FF22286E756C6C2900D2011206DE30C0
:100B2F0001F8C201780930D50108F602078D2D5062
:100B3F004349581206DE2403B405004001E4900B2C
:100B4F003D93120712743A120712D2037509040269
:020B5F00096328
:10021A00E9D2E7C933E833F892D5EDD2E7CD33EC2A
:07022A0033FC5002B2D522A3
:10023100EC30E7100FBF000C0EBE00080DBD00042E
:100241000BEB6014A2D5EB13FCED92E7FD2274FFDA
:10025100FCFDFEFF22E480F8A2D574FF13FC7D8033
:03026100E480EF47
:10026400F920E73624F950037907E4F42402FBE586
:1002740082158270021583DBF6E024FB501BE960D3
:1002840014E4F0E582158270021583E004F0B40AE8
:0D02940008E4F0D9EE7401F00A22C2D52270
:1002A100ED33EC3392D5FA602AB4FF33EDC2E77B2C
:1002B100FF60067A0279C6E4227A0279CF20D5045A
:1002C1007A0279CA224E614E002B494E46002D49D1
:1002D1004E4600E47A08F0A3DAFC7B00740722C0E2
:1002E10083C082ECC0E0EDC0E0EEC0E0EFC0E0EA28
:1002F10075F010A4CAABF075F04DA42BFBE435F0FA
:10030100FCEA2410FAEB34C5FBEC34D9FCEDC2E76E
:10031100FF75F056A4F42411C5F0F434C58FF0A490
:100321002AE5F03BE43CF020E7141204CED0E0FFD4
:10033100D0E0FED0E0FDD0E0FC12013F8014F404D7
:100341001204CED0E0FFD0E0FED0E0FDD0E0FC1200
:100351000036D082D083E0FAEDD2E7CD33EC3324FE
:1003610082FBE4C3CF33CFCE33CECD33CD33DBF3FA
:100371007B0775F00A846004F0A31B0AE5F0F0A383
:100381008FF0740AA4FFACF08EF0740AA42CFEACBA
:10039100F050010C8DF0740AA42CFDE435F0F0A3AB
:0503A100DBDE74072201
:1003A60002024FE86480F8E933E83360110460F034
:1003B600ED33EC337009E8FCE9FDEAFEEBFF2204BD
:1003C60060DED3EB9FEA9EE99DE8C2E78CF0C2F7B8
:1003D60095F0400CE8CCF8E9CDF9EACEFAEBCFFB84
:1003E60012021A85D0F05804700320D5B3E80470C1
:1003F600075002B2D502025992D5EC0460F7E4CC5C
:10040600C0E0C398F8603B94186008400DD0E0FB4C
:10041600020231E4FBFAC9FC8028E830E406E4C9AC
:10042600FBE4CAFCE830E305E4C9CACBFCE85407A0
:100436006010F8C3E913F9EA13FAEB13FBEC13FCAB
:10044600D8F130F52FC3E49CFCEF9BFFEE9AFEED4E
:1004560099FDD0E0FBEF4E4D4C701222DB030202F9
:1004660056EC2CFCEF33FFEE33FEED33FDED30E7BB
:10047600EB020231EF2BFFEE3AFEED39FDD0E0FB49
:1004860050130BBB0003020259ED13FDEE13FEEFF2
:0804960013FFEC13FC0202311C
:10049E003F8000004120000042C80000447A000066
:1004AE00461C400047C35000497424004B189680E8
:1004BE004CBEBC205A0E1BCA6753C21C749DC5AEDF
:1004CE00FB60065407601C23231204FCEB543860B7
:1004DE00091204E81204F7120036ECF8EDF9EEFA00
:1004EE00EFCB22EB1204F780F1543803241C900456
:1004FE009EFE93FC0EEE93FD0EEE930ECE93FF2218
:100F5700020B61E493A3F8E493A34003F68001F244
:100F670008DFF48029E493A3F85407240CC8C3339B
:100F7700C4540F4420C8834004F456800146F6DF6A
:100F8700E4800B0102040810204080901091E47E59
:100F9700019360BCA3FF543F30E509541FFEE4935F
:100FA700A360010ECF54C025E060A840B8E493A326
:100FB700FAE493A3F8E493A3C8C582C8CAC583CA51
:100FC700F0A3C8C582C8CAC583CADFE9DEE780BE09
:0110BB000034
:10050E00E709F608DFFA8046E709F208DFFA803ECF
:10051E0088828C83E709F0A3DFFA8032E309F608BC
:10052E00DFFA8078E309F208DFFA807088828C8324
:10053E00E309F0A3DFFA806489828A83E0A3F608D8
:10054E00DFFA805889828A83E0A3F208DFFA804CB2
:10055E0080D280FA80C680D4806980F28033801089
:10056E0080A680EA809A80A880DA80E280CA8033F2
:10057E0089828A83ECFAE493A3C8C582C8CCC5836A
:10058E00CCF0A3C8C582C8CCC583CCDFE9DEE7803A
:10059E000D89828A83E493A3F608DFF9ECFAA9F0B9
:1005AE00EDFB2289828A83ECFAE0A3C8C582C8CC0F
:1005BE00C583CCF0A3C8C582C8CCC583CCDFEADE28
:1005CE00E880DB89828A83E493A3F208DFF980CC8A
:1005DE0088F0EF60010E4E60C388F0ED2402B40483
:1005EE000050B9F582EB2402B4040050AF2323452A
:0605FE00822390055E73EC
:10060400BB010689828A83E0225002E722BBFE02F4
:09061400E32289828A83E4932227
:10061D00BB010CE58229F582E5833AF583E0225092
:10062D0006E92582F8E622BBFE06E92582F8E222DC
:0D063D00E58229F582E5833AF583E49322F6
:10064A00BB010689828A83F0225002F722BBFE018F
:02065A00F32289
:10065C00F8BB010DE58229F582E5833AF583E8F0D4
:10066C00225006E92582C8F622BBFE05E92582C880
:02067C00F22268
:0E067E00C3E49FFFE49EFEE49DFDE49CFC228D
:0C068C00ECF0A3EDF0A3EEF0A3EFF022E1
:10069800F8E0FBA3A3E0F925F0F0E58215827002EB
:0706A8001583E0FA38F0228F
:0906AF00EBF0A3EAF0A3E9F0224C
:1006B800D083D082F8E4937012740193700DA3A3D1
:1006C80093F8740193F5828883E4737402936860E5
:0606D800EFA3A3A380DFE5
:1010BC00EFB40A07740D1210C7740A309811A8996E
:1010CC00B8130CC2983098FDA899C298B811F63094
:0710DC0099FDC299F599226C
:00000001FF
